{
  "contractName": "Voting",
  "abi": [
    {
      "inputs": [],
      "stateMutability": "nonpayable",
      "type": "constructor"
    },
    {
      "inputs": [],
      "name": "admin",
      "outputs": [
        {
          "internalType": "address",
          "name": "",
          "type": "address"
        }
      ],
      "stateMutability": "view",
      "type": "function",
      "constant": true
    },
    {
      "inputs": [
        {
          "internalType": "uint256",
          "name": "",
          "type": "uint256"
        }
      ],
      "name": "candidateList",
      "outputs": [
        {
          "internalType": "string",
          "name": "",
          "type": "string"
        }
      ],
      "stateMutability": "view",
      "type": "function",
      "constant": true
    },
    {
      "inputs": [
        {
          "internalType": "address",
          "name": "",
          "type": "address"
        }
      ],
      "name": "voters",
      "outputs": [
        {
          "internalType": "string",
          "name": "electionID",
          "type": "string"
        },
        {
          "internalType": "bytes32",
          "name": "irisHash",
          "type": "bytes32"
        },
        {
          "internalType": "bool",
          "name": "isRegistered",
          "type": "bool"
        },
        {
          "internalType": "bool",
          "name": "hasVoted",
          "type": "bool"
        }
      ],
      "stateMutability": "view",
      "type": "function",
      "constant": true
    },
    {
      "inputs": [
        {
          "internalType": "string",
          "name": "",
          "type": "string"
        }
      ],
      "name": "votes",
      "outputs": [
        {
          "internalType": "uint256",
          "name": "",
          "type": "uint256"
        }
      ],
      "stateMutability": "view",
      "type": "function",
      "constant": true
    },
    {
      "inputs": [
        {
          "internalType": "string",
          "name": "candidate",
          "type": "string"
        }
      ],
      "name": "addCandidate",
      "outputs": [],
      "stateMutability": "nonpayable",
      "type": "function"
    },
    {
      "inputs": [
        {
          "internalType": "address",
          "name": "_voterAddr",
          "type": "address"
        },
        {
          "internalType": "string",
          "name": "_electionID",
          "type": "string"
        },
        {
          "internalType": "bytes32",
          "name": "_irisHash",
          "type": "bytes32"
        }
      ],
      "name": "registerVoter",
      "outputs": [],
      "stateMutability": "nonpayable",
      "type": "function"
    },
    {
      "inputs": [
        {
          "internalType": "string",
          "name": "_electionID",
          "type": "string"
        },
        {
          "internalType": "bytes32",
          "name": "_irisHash",
          "type": "bytes32"
        },
        {
          "internalType": "string",
          "name": "candidate",
          "type": "string"
        }
      ],
      "name": "vote",
      "outputs": [],
      "stateMutability": "nonpayable",
      "type": "function"
    },
    {
      "inputs": [
        {
          "internalType": "string",
          "name": "candidate",
          "type": "string"
        }
      ],
      "name": "getVotes",
      "outputs": [
        {
          "internalType": "uint256",
          "name": "",
          "type": "uint256"
        }
      ],
      "stateMutability": "view",
      "type": "function",
      "constant": true
    },
    {
      "inputs": [],
      "name": "getCandidates",
      "outputs": [
        {
          "internalType": "string[]",
          "name": "",
          "type": "string[]"
        }
      ],
      "stateMutability": "view",
      "type": "function",
      "constant": true
    },
    {
      "inputs": [
        {
          "internalType": "address",
          "name": "_voter",
          "type": "address"
        }
      ],
      "name": "hasVoted",
      "outputs": [
        {
          "internalType": "bool",
          "name": "",
          "type": "bool"
        }
      ],
      "stateMutability": "view",
      "type": "function",
      "constant": true
    }
  ],
  "bytecode": "0x608060405234801561000f575f80fd5b50335f806101000a81548173ffffffffffffffffffffffffffffffffffffffff021916908373ffffffffffffffffffffffffffffffffffffffff1602179055506116d38061005c5f395ff3fe608060405234801561000f575f80fd5b506004361061009c575f3560e01c806381586822116100645780638158682214610156578063a3ec138d14610172578063b13c744b146101a5578063b99ef1fa146101d5578063f851a440146102055761009c565b806306a49fce146100a057806309eef43e146100be57806313e52b4e146100ee578063462e91ec1461010a578063805265e514610126575b5f80fd5b6100a8610223565b6040516100b59190610afc565b60405180910390f35b6100d860048036038101906100d39190610b87565b6102f7565b6040516100e59190610bcc565b60405180910390f35b61010860048036038101906101039190610d44565b61034d565b005b610124600480360381019061011f9190610db0565b61052f565b005b610140600480360381019061013b9190610db0565b6105f1565b60405161014d9190610e0f565b60405180910390f35b610170600480360381019061016b9190610e28565b610618565b005b61018c60048036038101906101879190610b87565b6107f6565b60405161019c9493929190610f07565b60405180910390f35b6101bf60048036038101906101ba9190610f7b565b6108c1565b6040516101cc9190610fa6565b60405180910390f35b6101ef60048036038101906101ea9190610db0565b610967565b6040516101fc9190610e0f565b60405180910390f35b61020d610994565b60405161021a9190610fd5565b60405180910390f35b60606003805480602002602001604051908101604052809291908181526020015f905b828210156102ee578382905f5260205f200180546102639061101b565b80601f016020809104026020016040519081016040528092919081815260200182805461028f9061101b565b80156102da5780601f106102b1576101008083540402835291602001916102da565b820191905f5260205f20905b8154815290600101906020018083116102bd57829003601f168201915b505050505081526020019060010190610246565b50505050905090565b5f60015f8373ffffffffffffffffffffffffffffffffffffffff1673ffffffffffffffffffffffffffffffffffffffff1681526020019081526020015f2060020160019054906101000a900460ff169050919050565b5f8054906101000a900473ffffffffffffffffffffffffffffffffffffffff1673ffffffffffffffffffffffffffffffffffffffff163373ffffffffffffffffffffffffffffffffffffffff16146103da576040517f08c379a00000000000000000000000000000000000000000000000000000000081526004016103d190611095565b60405180910390fd5b60015f8473ffffffffffffffffffffffffffffffffffffffff1673ffffffffffffffffffffffffffffffffffffffff1681526020019081526020015f206002015f9054906101000a900460ff1615610467576040517f08c379a000000000000000000000000000000000000000000000000000000000815260040161045e906110fd565b60405180910390fd5b60405180608001604052808381526020018281526020016001151581526020015f151581525060015f8573ffffffffffffffffffffffffffffffffffffffff1673ffffffffffffffffffffffffffffffffffffffff1681526020019081526020015f205f820151815f0190816104dd91906112b8565b50602082015181600101556040820151816002015f6101000a81548160ff02191690831515021790555060608201518160020160016101000a81548160ff021916908315150217905550905050505050565b5f8054906101000a900473ffffffffffffffffffffffffffffffffffffffff1673ffffffffffffffffffffffffffffffffffffffff163373ffffffffffffffffffffffffffffffffffffffff16146105bc576040517f08c379a00000000000000000000000000000000000000000000000000000000081526004016105b390611095565b60405180910390fd5b600381908060018154018082558091505060019003905f5260205f20015f9091909190915090816105ed91906112b8565b5050565b5f60028260405161060291906113c1565b9081526020016040518091039020549050919050565b5f60015f3373ffffffffffffffffffffffffffffffffffffffff1673ffffffffffffffffffffffffffffffffffffffff1681526020019081526020015f209050806002015f9054906101000a900460ff166106a8576040517f08c379a000000000000000000000000000000000000000000000000000000000815260040161069f90611421565b60405180910390fd5b8060020160019054906101000a900460ff16156106fa576040517f08c379a00000000000000000000000000000000000000000000000000000000081526004016106f190611489565b60405180910390fd5b8380519060200120815f016040516107129190611543565b60405180910390201461075a576040517f08c379a0000000000000000000000000000000000000000000000000000000008152600401610751906115a3565b60405180910390fd5b828160010154146107a0576040517f08c379a00000000000000000000000000000000000000000000000000000000081526004016107979061160b565b60405180910390fd5b60018160020160016101000a81548160ff0219169083151502179055506002826040516107cd91906113c1565b90815260200160405180910390205f8154809291906107eb90611656565b919050555050505050565b6001602052805f5260405f205f91509050805f0180546108159061101b565b80601f01602080910402602001604051908101604052809291908181526020018280546108419061101b565b801561088c5780601f106108635761010080835404028352916020019161088c565b820191905f5260205f20905b81548152906001019060200180831161086f57829003601f168201915b505050505090806001015490806002015f9054906101000a900460ff16908060020160019054906101000a900460ff16905084565b600381815481106108d0575f80fd5b905f5260205f20015f9150905080546108e89061101b565b80601f01602080910402602001604051908101604052809291908181526020018280546109149061101b565b801561095f5780601f106109365761010080835404028352916020019161095f565b820191905f5260205f20905b81548152906001019060200180831161094257829003601f168201915b505050505081565b6002818051602081018201805184825260208301602085012081835280955050505050505f915090505481565b5f8054906101000a900473ffffffffffffffffffffffffffffffffffffffff1681565b5f81519050919050565b5f82825260208201905092915050565b5f819050602082019050919050565b5f81519050919050565b5f82825260208201905092915050565b5f5b83811015610a175780820151818401526020810190506109fc565b5f8484015250505050565b5f601f19601f8301169050919050565b5f610a3c826109e0565b610a4681856109ea565b9350610a568185602086016109fa565b610a5f81610a22565b840191505092915050565b5f610a758383610a32565b905092915050565b5f602082019050919050565b5f610a93826109b7565b610a9d81856109c1565b935083602082028501610aaf856109d1565b805f5b85811015610aea5784840389528151610acb8582610a6a565b9450610ad683610a7d565b925060208a01995050600181019050610ab2565b50829750879550505050505092915050565b5f6020820190508181035f830152610b148184610a89565b905092915050565b5f604051905090565b5f80fd5b5f80fd5b5f73ffffffffffffffffffffffffffffffffffffffff82169050919050565b5f610b5682610b2d565b9050919050565b610b6681610b4c565b8114610b70575f80fd5b50565b5f81359050610b8181610b5d565b92915050565b5f60208284031215610b9c57610b9b610b25565b5b5f610ba984828501610b73565b91505092915050565b5f8115159050919050565b610bc681610bb2565b82525050565b5f602082019050610bdf5f830184610bbd565b92915050565b5f80fd5b5f80fd5b7f4e487b71000000000000000000000000000000000000000000000000000000005f52604160045260245ffd5b610c2382610a22565b810181811067ffffffffffffffff82111715610c4257610c41610bed565b5b80604052505050565b5f610c54610b1c565b9050610c608282610c1a565b919050565b5f67ffffffffffffffff821115610c7f57610c7e610bed565b5b610c8882610a22565b9050602081019050919050565b828183375f83830152505050565b5f610cb5610cb084610c65565b610c4b565b905082815260208101848484011115610cd157610cd0610be9565b5b610cdc848285610c95565b509392505050565b5f82601f830112610cf857610cf7610be5565b5b8135610d08848260208601610ca3565b91505092915050565b5f819050919050565b610d2381610d11565b8114610d2d575f80fd5b50565b5f81359050610d3e81610d1a565b92915050565b5f805f60608486031215610d5b57610d5a610b25565b5b5f610d6886828701610b73565b935050602084013567ffffffffffffffff811115610d8957610d88610b29565b5b610d9586828701610ce4565b9250506040610da686828701610d30565b9150509250925092565b5f60208284031215610dc557610dc4610b25565b5b5f82013567ffffffffffffffff811115610de257610de1610b29565b5b610dee84828501610ce4565b91505092915050565b5f819050919050565b610e0981610df7565b82525050565b5f602082019050610e225f830184610e00565b92915050565b5f805f60608486031215610e3f57610e3e610b25565b5b5f84013567ffffffffffffffff811115610e5c57610e5b610b29565b5b610e6886828701610ce4565b9350506020610e7986828701610d30565b925050604084013567ffffffffffffffff811115610e9a57610e99610b29565b5b610ea686828701610ce4565b9150509250925092565b5f82825260208201905092915050565b5f610eca826109e0565b610ed48185610eb0565b9350610ee48185602086016109fa565b610eed81610a22565b840191505092915050565b610f0181610d11565b82525050565b5f6080820190508181035f830152610f1f8187610ec0565b9050610f2e6020830186610ef8565b610f3b6040830185610bbd565b610f486060830184610bbd565b95945050505050565b610f5a81610df7565b8114610f64575f80fd5b50565b5f81359050610f7581610f51565b92915050565b5f60208284031215610f9057610f8f610b25565b5b5f610f9d84828501610f67565b91505092915050565b5f6020820190508181035f830152610fbe8184610ec0565b905092915050565b610fcf81610b4c565b82525050565b5f602082019050610fe85f830184610fc6565b92915050565b7f4e487b71000000000000000000000000000000000000000000000000000000005f52602260045260245ffd5b5f600282049050600182168061103257607f821691505b60208210810361104557611044610fee565b5b50919050565b7f4f6e6c792061646d696e2063616e2063616c6c207468697300000000000000005f82015250565b5f61107f601883610eb0565b915061108a8261104b565b602082019050919050565b5f6020820190508181035f8301526110ac81611073565b9050919050565b7f416c7265616479207265676973746572656400000000000000000000000000005f82015250565b5f6110e7601283610eb0565b91506110f2826110b3565b602082019050919050565b5f6020820190508181035f830152611114816110db565b9050919050565b5f819050815f5260205f209050919050565b5f6020601f8301049050919050565b5f82821b905092915050565b5f600883026111777fffffffffffffffffffffffffffffffffffffffffffffffffffffffffffffffff8261113c565b611181868361113c565b95508019841693508086168417925050509392505050565b5f819050919050565b5f6111bc6111b76111b284610df7565b611199565b610df7565b9050919050565b5f819050919050565b6111d5836111a2565b6111e96111e1826111c3565b848454611148565b825550505050565b5f90565b6111fd6111f1565b6112088184846111cc565b505050565b5b8181101561122b576112205f826111f5565b60018101905061120e565b5050565b601f821115611270576112418161111b565b61124a8461112d565b81016020851015611259578190505b61126d6112658561112d565b83018261120d565b50505b505050565b5f82821c905092915050565b5f6112905f1984600802611275565b1980831691505092915050565b5f6112a88383611281565b9150826002028217905092915050565b6112c1826109e0565b67ffffffffffffffff8111156112da576112d9610bed565b5b6112e4825461101b565b6112ef82828561122f565b5f60209050601f831160018114611320575f841561130e578287015190505b611318858261129d565b86555061137f565b601f19841661132e8661111b565b5f5b8281101561135557848901518255600182019150602085019450602081019050611330565b86831015611372578489015161136e601f891682611281565b8355505b6001600288020188555050505b505050505050565b5f81905092915050565b5f61139b826109e0565b6113a58185611387565b93506113b58185602086016109fa565b80840191505092915050565b5f6113cc8284611391565b915081905092915050565b7f4e6f742061207265676973746572656420766f746572000000000000000000005f82015250565b5f61140b601683610eb0565b9150611416826113d7565b602082019050919050565b5f6020820190508181035f830152611438816113ff565b9050919050565b7f416c726561647920766f746564000000000000000000000000000000000000005f82015250565b5f611473600d83610eb0565b915061147e8261143f565b602082019050919050565b5f6020820190508181035f8301526114a081611467565b9050919050565b5f81905092915050565b5f819050815f5260205f209050919050565b5f81546114cf8161101b565b6114d981866114a7565b9450600182165f81146114f357600181146115085761153a565b60ff198316865281151582028601935061153a565b611511856114b1565b5f5b8381101561153257815481890152600182019150602081019050611513565b838801955050505b50505092915050565b5f61154e82846114c3565b915081905092915050565b7f456c656374696f6e204944206d69736d617463680000000000000000000000005f82015250565b5f61158d601483610eb0565b915061159882611559565b602082019050919050565b5f6020820190508181035f8301526115ba81611581565b9050919050565b7f497269732061757468656e7469636174696f6e206661696c65640000000000005f82015250565b5f6115f5601a83610eb0565b9150611600826115c1565b602082019050919050565b5f6020820190508181035f830152611622816115e9565b9050919050565b7f4e487b71000000000000000000000000000000000000000000000000000000005f52601160045260245ffd5b5f61166082610df7565b91507fffffffffffffffffffffffffffffffffffffffffffffffffffffffffffffffff820361169257611691611629565b5b60018201905091905056fea26469706673582212206cafa1290fa8fb0ea97ebc6e29110e445290d9dbe095bd564583002d465ed47e64736f6c63430008150033",
  "immutableReferences": {},
  "source": "// SPDX-License-Identifier: MIT\r\npragma solidity ^0.8.0;\r\n\r\ncontract Voting {\r\n\r\n    address public admin;\r\n\r\n    constructor() {\r\n        admin = msg.sender;\r\n    }\r\n\r\n    modifier onlyAdmin() {\r\n        require(msg.sender == admin, \"Only admin can call this\");\r\n        _;\r\n    }\r\n\r\n    struct Voter {\r\n        string electionID;\r\n        bytes32 irisHash;\r\n        bool isRegistered;\r\n        bool hasVoted;\r\n    }\r\n\r\n    mapping(address => Voter) public voters;\r\n    mapping(string => uint) public votes;\r\n    string[] public candidateList;\r\n\r\n    // Register a candidate (optional)\r\n    function addCandidate(string memory candidate) public onlyAdmin {\r\n        candidateList.push(candidate);\r\n    }\r\n\r\n    // Register a voter with their address, Voter ID, and iris hash\r\n    function registerVoter(address _voterAddr, string memory _electionID, bytes32 _irisHash) public onlyAdmin {\r\n        require(!voters[_voterAddr].isRegistered, \"Already registered\");\r\n\r\n        voters[_voterAddr] = Voter({\r\n            electionID: _electionID,\r\n            irisHash: _irisHash,\r\n            isRegistered: true,\r\n            hasVoted: false\r\n        });\r\n    }\r\n\r\n    // Vote using Election ID and Iris Hash\r\n    function vote(string memory _electionID, bytes32 _irisHash, string memory candidate) public {\r\n        Voter storage v = voters[msg.sender];\r\n\r\n        require(v.isRegistered, \"Not a registered voter\");\r\n        require(!v.hasVoted, \"Already voted\");\r\n        require(keccak256(bytes(v.electionID)) == keccak256(bytes(_electionID)), \"Election ID mismatch\");\r\n        require(v.irisHash == _irisHash, \"Iris authentication failed\");\r\n\r\n        v.hasVoted = true;\r\n        votes[candidate]++;\r\n    }\r\n\r\n    // Get total votes for a candidate\r\n    function getVotes(string memory candidate) public view returns (uint) {\r\n        return votes[candidate];\r\n    }\r\n\r\n    // Get all candidates\r\n    function getCandidates() public view returns (string[] memory) {\r\n        return candidateList;\r\n    }\r\n\r\n    // Check if someone has voted\r\n    function hasVoted(address _voter) public view returns (bool) {\r\n        return voters[_voter].hasVoted;\r\n    }\r\n}\r\n",
  "sourcePath": "D:\\Spoorthi\\blockchain vote\\voting-dapp\\contracts\\voting.sol",
  "compiler": {
    "name": "solc",
    "version": "0.8.21+commit.d9974bed.Emscripten.clang"
  },
  "schemaVersion": "3.4.16",
  "updatedAt": "2025-04-04T15:12:11.552Z",
  "networkType": "ethereum",
  "devdoc": {
    "kind": "dev",
    "methods": {},
    "version": 1
  },
  "userdoc": {
    "kind": "user",
    "methods": {},
    "version": 1
  }
}